:100000000C94FC000C9419010C9419010C94190126
:100010000C9419010C9419010C9419010C941901F8
:100020000C9419010C9419010C944F050C948D0536
:100030000C9419010C9419010C9419010C941901D8
:100040000C9419010C9419010C9419010C941901C8
:100050000C9419010C9419010C9419010C941901B8
:100060000C9419010C9419010C9419010C941901A8
:100070000C9419010C9419010C9419010C94190198
:100080000C9419010C9419010C9419010C94190188
:100090000C9420070C9419010C9419010C9419016B
:1000A0000C9419010C9419010C941901E304E00457
:1000B000DD04DA04D704D404D104CE04CB04C8048C
:1000C000C504C204BF04BC04B904B604B304B0043C
:1000D000AD04AA04A704A404A1049E049B049804EC
:1000E000950492048F048C0489048604830480049C
:1000F0007D047A047704740471046E046B0468044C
:10010000650462045F045C045904560453045004FB
:100110004D044A044704440441043E043B043804AB
:10012000350432042F042C0429042604230400017E
:10013000000062011200020000740143000300008D
:10014000B7010401030904BB011402030904D1012E
:100150001603030904E9010C0001C11201803601F4
:1001600081361201000202000010C0167A0400015C
:100170000102030109024300020100C03209040028
:100180000001020201000524001001052401010103
:10019000042402060524060001070582031000401E
:1001A00009040100020A00000007050302400000E4
:1001B0000705840240000004030904140359006F7A
:1001C000007500720020004E0061006D00650000A7
:1001D00000160355005300420020005300650072D2
:1001E00000690061006C0000000C03310032003334
:1001F000003400350000000011241FBECFEFDAE00C
:10020000DEBFCDBF11E0A0E0B1E0E4E0FFE002C05E
:1002100005900D92A830B107D9F711E0A8E0B1E040
:1002200001C01D92AC30B107E1F70E9477070C9432
:1002300080070C9400008093000166E041E00E947A
:1002400046018091000167E040E00E944601089568
:100250001F93182F8091000166E040E00E94460144
:100260008091000167E040E00E944601112331F0D7
:100270008091000167E00E944202FACF8091000164
:1002800066E041E00E9446011F910895823009F422
:100290003FC0833030F4882359F0813009F07FC0AB
:1002A0001FC0833009F44CC0843009F078C060C0AE
:1002B00024B181E090E0FC0102C0EE0FFF1F6A95BF
:1002C000E2F7BF018E2F822B84B9442321F085B140
:1002D000682B65B9089585B16095682365B908955F
:1002E00027B181E090E0FC0102C0EE0FFF1F6A958C
:1002F000E2F7BF018E2F822B87B9442321F088B10A
:10030000682B68B9089588B16095682368B9089525
:100310002AB181E090E0FC0102C0EE0FFF1F6A9558
:10032000E2F7BF018E2F822B8AB9442321F08BB1D3
:10033000682B6BB908958BB1609568236BB90895EC
:100340002DB181E090E0FC0102C0EE0FFF1F6A9525
:10035000E2F7BF018E2F822B8DB9442321F08EB19D
:10036000682B6EB908958EB1609568236EB90895B3
:1003700020B381E090E0FC0102C0EE0FFF1F6A9500
:10038000E2F7BF018E2F822B80BB442321F081B383
:10039000682B61BB089581B36095682361BB0895A4
:1003A0008230A9F1833030F4882359F0813009F08C
:1003B00067C01AC0833009F43DC0843009F060C0C2
:1003C0004CC044B121E030E0C90102C0880F991F40
:1003D0006A95E2F7982F9095942394B995B1982B4C
:1003E00095B993B18923089547B121E030E0C9015F
:1003F00002C0880F991F6A95E2F7982F9095942371
:1004000097B998B1982B98B996B1892308954AB1B4
:1004100021E030E0C90102C0880F991F6A95E2F718
:10042000982F909594239AB99BB1982B9BB999B129
:10043000892308954DB121E030E0C90102C0880F41
:10044000991F6A95E2F7982F909594239DB99EB1D4
:10045000982B9EB99CB18923089540B321E030E0E8
:10046000C90102C0880F991F6A95E2F7982F9095ED
:10047000942390BB91B3982B91BB9FB1892308958E
:1004800080E008950F931F93082F162F40E00E94DD
:1004900046018FE79AE1A6E081509040A040E1F745
:1004A00000C00000802F612F41E00E9446018FE7CD
:1004B0009AE1A6E081509040A040E1F700C0000022
:1004C0001F910F9108951092B90080E28093B800B7
:1004D0008FEF8093BB0085E08093BC00089585EA90
:1004E0008093BC00089585E98093BC00089585EA57
:1004F0008093BC000895613019F4880F816001C0B9
:10050000880F8093BB0085EC8093BC000895809396
:10051000BB0085E88093BC00089585EC8093BC0007
:10052000089585E88093BC000895880F8093BA00F1
:1005300085EC8093BC00ECEBF0E080818823ECF745
:10054000089585EC8093BC00089585E88093BC00F5
:10055000089581E08093D70080EA8093D80082E1FB
:1005600089BD09B400FEFDCF80E98093D8001092C8
:10057000E00010920801109209018CE08093E200E3
:10058000789408958091080108953FB7F894809178
:100590000801882321F43FBF2FEF3FEF24C083E001
:1005A0008093E9008091E80085FD12C082FD04C0BF
:1005B0000BC082FD04C008C0E8EEF0E09BE690832B
:1005C000808185FFF6CF04C03FBF2FEF3FEF0BC008
:1005D0002091F1008091E80085FD03C08BE68093B7
:1005E000E8003FBF30E0822F932F08959FB7F89423
:1005F00080910801882389F083E08093E90080914D
:10060000F200882359F42091E80022FF07C025FD5D
:1006100005C02BE62093E80001C080E09FBF08954D
:1006200080910801882389F02FB7F89483E08093A4
:10063000E9008091E80085FF07C0E8EEF0E09BE666
:100640009083808185FDFCCF2FBF0895CF93DF93EA
:1006500090910801992309F44DC09FB7F89424E0C4
:100660002093E90020910B01222349F02091E8001A
:1006700025FD03C09FBF8FEF42C010920B01309148
:10068000E4002091E80025FD26C0375E9FBF9091D1
:10069000E400931749F090910801992379F42CC054
:1006A0009FBF9881931729F481E080930B018FEF0E
:1006B00026C090910801992341F420C0A9EEB0E032
:1006C00044E0E8EEF0E0C4EED0E09FB7F8944C933D
:1006D000208125FFE5CF8093F1008091E80085FD22
:1006E00003C08AE38093E80085E080930A019FBFFE
:1006F00080E005C08FEF03C08FEF01C08FEFDF9167
:10070000CF910895909108019923D9F02FB7F894CB
:1007100094E09093E9009091E80095FD03C02FBF0D
:100720008FEF08958093F1008091E80085FD03C06C
:100730008AE38093E80085E080930A012FBF80E080
:1007400008958FEF08959F92AF92BF92CF92DF925C
:10075000EF92FF920F931F93CF93DF93DC01809171
:100760000801882309F43CC1FFB6F89484E0809323
:10077000E90080910B01882349F08091E80085FD14
:1007800003C0FFBE8FEF33C110920B0161157105DD
:1007900009F428C1C4EED0E088EE90E049EE50E0C4
:1007A000EE246894E2F802EF10E0CC246894C6F8D6
:1007B00021EF30E00F2EFAE3BF2EF02D0F2EF5E0E3
:1007C000DF2EF02D9880FC01A080A5FC21C0F9E16E
:1007D0009F0EFFBEE881E91549F0E0910801EE2384
:1007E00079F402C1FFBEE881E91529F481E0809324
:1007F0000B018FEFFCC0E0910801EE2309F4F6C075
:10080000FFB6F894FA01E082FC01A080A5FEEACFD1
:10081000F801A080FC2DFA19AF2EEF2FF0E06E1733
:100820007F0708F4A62E6A197109EA2DF0E0E13479
:10083000F10508F0C5C0EA5AFF4FEE0FFF1F059003
:10084000F491E02D0994AD90F901A082AD90F901E9
:10085000A082AD90F901A082AD90F901A082AD9087
:10086000F901A082AD90F901A082AD90F901A082BA
:10087000AD90F901A082AD90F901A082AD90F9018F
:10088000A082AD90F901A082AD90F901A082AD9057
:10089000F901A082AD90F901A082AD90F901A0828A
:1008A000AD90F901A082AD90F901A082AD90F9015F
:1008B000A082AD90F901A082AD90F901A082AD9027
:1008C000F901A082AD90F901A082AD90F901A0825A
:1008D000AD90F901A082AD90F901A082AD90F9012F
:1008E000A082AD90F901A082AD90F901A082AD90F7
:1008F000F901A082AD90F901A082AD90F901A0822A
:10090000AD90F901A082AD90F901A082AD90F901FE
:10091000A082AD90F901A082AD90F901A082AD90C6
:10092000F901A082AD90F901A082AD90F901A082F9
:10093000AD90F901A082AD90F901A082AD90F901CE
:10094000A082AD90F901A082AD90F901A082AD9096
:10095000F901A082AD90F901A082AD90F901A082C9
:10096000AD90F901A082AD90F901A082AD90F9019E
:10097000A082AD90F901A082AD90F901A082AD9066
:10098000F901A082AD90F901A082AD90F901A08299
:10099000AD90F901A082AD90F901A082AD90F9016E
:1009A000A082AD90F901A082AD90F901A082AD9036
:1009B000F901A082AD90F901A082AD90F901A08269
:1009C000AD90F901A082FC01A080A5FEB082D0927A
:1009D0000A01FFBE6115710509F0F4CE80E007C081
:1009E0008FEF05C080E003C08FEF01C08FEFDF9174
:1009F000CF911F910F91FF90EF90DF90CF90BF901C
:100A0000AF909F9008958FB7F89490910A01992321
:100A100041F094E09093E9009AE39093E8001092FB
:100A20000A018FBF089560910101709102018091C8
:100A3000030190910401089580910501089580912A
:100A40000601089580910701089580910901089594
:100A50002FB7F89490910801992319F42FBF8FEFC5
:100A6000089592E09093E9009091E80095FD03C00D
:100A70002FBF8FEF0895E1EFF0E091EA908390E2CD
:100A80009083108210821082108291E090831082F5
:100A900080838AE38093E8002FBF80E008951F924F
:100AA0000F920FB60F9211248F939F93EF93FF93A2
:100AB000E1EEF0E08081108283FF11C01092E90026
:100AC00091E09093EB001092EC0092E19093ED0096
:100AD00098E09093F000109208011092090182FFB3
:100AE00013C080910801882379F080910A0188233E
:100AF00059F0815080930A01882331F484E0809377
:100B0000E9008AE38093E800FF91EF919F918F9134
:100B10000F900FBE0F901F9018951F920F920FB657
:100B20000F921124EF92FF920F931F932F933F93F5
:100B30004F935F936F937F938F939F93AF93BF93E5
:100B4000CF93DF93EF93FF931092E9008091E80039
:100B500083FF5CC1E1EFF0E0A0812081408150E0A3
:100B60003081932F80E0482B592B608170E03081D9
:100B7000932F80E0682B792BE080F08082EF8093C8
:100B8000E800263009F068C0AEE2B1E0CD0107967A
:100B90009D012E5F3F4FD19604C081E28093EB0010
:100BA00038C1FC013797C591D4914C175D0711F5F9
:100BB0008901F901C591D4916C177D07D9F40E5FB5
:100BC0001F4FF80185919491282F392F0E5F1F4FE9
:100BD000F80104914E2D50E09F2D80E0842B952B41
:100BE0008F3F910519F010F08FEF90E0801748F4D7
:100BF000082F07C00796295F3F4F8A179B0789F682
:100C0000CCCFC8EED0E06EEFA1EFB0E070E188810C
:100C100090E0AC014570507041155105C1F382FD63
:100C2000F8C0502F013108F0572F552371F0C9013A
:100C3000452FFC010196E491EC934150D1F7852FAB
:100C4000815090E00196280F391F051B688300230F
:100C5000F1F65031E1F2DDC0253061F48EEF809382
:100C6000E800E8EEF0E0808180FFFDCF406840932F
:100C7000E300CFC0293099F5AA2389F540930801F4
:100C80001092090110920A018EEF8093E80001E0B2
:100C900088E591E0C9EED0E0ABEEB0E06CEE70E03C
:100CA0004DEE50E00883FC010196E491EC93EE23B5
:100CB00069F09C012F5F3F4FFC018491FB01808311
:100CC000C9010196F9012491FA0120830F5F0530D3
:100CD00049F7EAEEF0E08EE1808310829AC0283076
:100CE00079F4A03869F4E8EEF0E0808180FFFDCF70
:100CF000809108018093F1008EEF8093E80089C015
:100D00002132B1F4A13AA1F4E8EEF0E0808180FF55
:100D1000FDCFE1E0F1E0CF010796A1EFB0E0219136
:100D20002C93E817F907D9F78EEF8093E80071C08C
:100D30002032C9F4A132B9F4E8EEF0E0808182FFFC
:100D4000FDCFE1E0F1E0CF010796A1EFB0E02C91FB
:100D50002193E817F907D9F7E8EEF0E08BEF8083ED
:100D60008EEF808356C0223269F4A13259F4409349
:100D70000901E8EEF0E0808180FFFDCF8EEF8093E7
:100D8000E80047C02223D1F4E8EEF0E0808180FF44
:100D9000FDCFA23851F46093E9009091EB0081E01F
:100DA00095FF80E01092E90001C080E0E1EFF0E003
:100DB000808310828EEF8093E8002BC0213011F0E9
:100DC000233021F5A23011F541155105F9F46F7763
:100DD000862F81508430D0F48EEF8093E8006093AA
:100DE000E900233021F481E28093EB0012C089E115
:100DF0008093EB0081E090E002C0880F991F6A9514
:100E0000E2F7EAEEF0E08083108203C081E2809393
:100E1000EB00FF91EF91DF91CF91BF91AF919F9147
:100E20008F917F916F915F914F913F912F911F9182
:100E30000F91FF90EF900F900FBE0F901F9018959D
:100E40001F920F920FB60F9211242F933F934F933F
:100E50005F936F937F938F939F93AF93BF93EF9322
:100E6000FF938091B900887F883219F1893238F474
:100E70008831A9F08032C9F0883041F507C0883444
:100E800051F0883501F1803309F519C081E060E047
:100E90000E947B021BC081E00E94280117C0ECEB7E
:100EA000F0E080818068808311C081E00E94280189
:100EB0000DC081E00E9487020E94730207C081E09A
:100EC0000E94280103C081E00E942801FF91EF9158
:100ED000BF91AF919F918F917F916F915F914F9152
:100EE0003F912F910F900FBE0F901F9018957894FF
:100EF00081E00E941B010E9463020E946F02FFCFEB
:040F0000F894FFCF93
:080F04000100E10000000008FB
:00000001FF
