S00E000066737873696D2E737265637C
S11300000C94BB000C94D8000C94D8000C94D80029
S11300100C94D8000C94D8000C94D8000C94D800FC
S11300200C94D8000C94D8000C94CC010C940A02C3
S11300300C94D8000C94D8000C94D8000C94D800DC
S11300400C94D8000C94D8000C94D8000C94D800CC
S11300500C94D8000C94D8000C94D8000C94D800BC
S11300600C94D8000C94D8000C94D8000C94D800AC
S11300700C94D8000C94D8000C94D8000C94D8009C
S11300800C94D8000C94D8000C94D8000C94D8008C
S11300900C948D030C94D8000C94D8000C94D800C4
S11300A00C94D8000C94D8000C94D80000010000E3
S11300B0590112000200001601430003000012015E
S11300C00401030904FC001402030904E4001603F8
S11300D0030904D6000C0C03310032003300340051
S11300E03500000016035500530042002000530061
S11300F065007200690061006C000000140359007F
S11301006F007500720020004E0061006D006500F4
S113011000000403090409024300020100C032097B
S1130120040000010202010005240010010524015D
S113013001010424020605240600010705820310B8
S1130140004009040100020A000000070503024000
S113015000000705840240000012010002020000B2
S113016010C0167A040001010203010001C112014A
S113017080360181360011241FBECFEFDAE0DEBFE6
S1130180CDBF11E0A0E0B1E0E0EEF7E002C00590E1
S11301900D92A830B107D9F721E0A8E0B1E001C081
S11301A01D92AE30B207E1F70E94E3030C94EE0314
S11301B00C94000080930A014093080160930901A4
S11301C041E00E940D0140E06091080180910A0124
S11301D00E940D010895CF93C82F40E0609109015A
S11301E080910A010E940D0140E060910801809114
S11301F00A010E940D01CC2339F06091080180911D
S11302000A010E948501F9CF41E0609109018091C2
S11302100A010E940D01CF9108958230B9F128F4AA
S1130220882351F08130E9F00895833009F443C004
S1130230843009F455C0089524B181E090E002C0EF
S1130240880F991F6A95E2F7282B24B9442321F0DB
S113025095B1892B85B9089595B18095892385B980
S1130260089527B181E090E002C0880F991F6A9534
S1130270E2F7282B27B9442321F098B1892B88B9B8
S1130280089598B18095892388B908952AB181E0A9
S113029090E002C0880F991F6A95E2F7282B2AB9CB
S11302A0442321F09BB1892B8BB908959BB1809590
S11302B089238BB908952DB181E090E002C0880FA5
S11302C0991F6A95E2F7282B2DB9442321F09EB19A
S11302D0892B8EB908959EB1809589238EB908958E
S11302E020B381E090E002C0880F991F6A95E2F77D
S11302F0282B20BB442321F091B3892B81BB089583
S113030091B38095892381BB0895CF93DF93C82F40
S1130310D62F40E00E940D012FE78AE196E021509C
S113032080409040E1F700C0000041E06D2F8C2F29
S11303300E940D012FE78AE196E021508040904011
S1130340E1F700C00000DF91CF9108951092B90049
S113035080E28093B8008FEF8093BB0085E08093A8
S1130360BC00089585EA8093BC00089585E98093D4
S1130370BC000895613019F4880F816001C080E0E9
S11303808093BB0085EC8093BC0008958093BB00F0
S113039085E88093BC0008951F920F920FB60F92C8
S11303A011248F939F93EF93FF93E1EEF0E080810C
S11303B0108283FF11C01092E90091E09093EB004A
S11303C01092EC0092E19093ED0098E09093F0008D
S11303D010920D0110920B0182FF13C080910D0148
S11303E0882379F080910C01882359F081508093FF
S11303F00C01811106C084E08093E9008AE38093B4
S1130400E800FF91EF919F918F910F900FBE0F9095
S11304101F9018951F920F920FB60F9211240F93ED
S11304201F932F933F934F935F936F937F938F9378
S11304309F93AF93BF93CF93DF93EF93FF93109268
S1130440E9008091E80083FF4CC1E1EFF0E06081B6
S113045080812081908130E0392B4081908150E06F
S1130460592B7081C08192EF9093E800863009F097
S113047058C004C081E28093EB003AC166E08CEA84
S113048090E0FC01A591B4912A173B0711F007965F
S113049023C0FC013296A591B4914A175B0711F071
S11304A007961AC0FC01349645915491FC01369686
S11304B02491872F90E09C2B8F3F910519F010F029
S11304C08FEF90E0821708F4282FA8EEB0E070E1D7
S11304D06EEFC1EFD0E003C0615099F6CBCF8C91A1
S11304E0982F9570E1F382FD03C1322F213108F07A
S11304F0372F332309F4F9C0FA01832F9491988399
S1130500815031968111FACF8FEF830F90E00196DD
S1130510480F591F231B6C932111E1CF3031F9F29D
S1130520E7C0853061F48EEF8093E800E8EEF0E0F8
S1130530808180FFFDCF20682093E300D9C08930FB
S113054009F035C06111CDC020930D0110920B014B
S113055010920C018EEF8093E80081E02BE631E0ED
S1130560C9EED0E0ABEEB0E00CEE10E06DEE70E062
S11305708883A9014F5F5F4FF90194919C9399235C
S113058061F0FA014491F8014083F90132969491A3
S11305902D5F3F4FFB01908301C09A018F5F85302F
S11305A039F7EAEEF0E08EE180831082A1C0883052
S11305B081F4603809F095C0E8EEF0E0808180FFB6
S11305C0FDCF80910D018093F1008EEF8093E800C0
S11305D08FC08132B9F4613A09F083C0E8EEF0E0EB
S11305E0808180FFFDCFE0E0F1E027E031E0A1EF82
S11305F0B0E081918C93E217F307D9F78EEF8093E3
S1130600E80076C08032D1F4613209F06AC0E8EEC5
S1130610F0E0808182FFFDCFE0E0F1E027E031E00F
S1130620A1EFB0E08C918193E217F307D9F7E8EEDC
S1130630F0E08BEF80838EEF80835AC0823271F4B6
S1130640613209F04EC020930B01E8EEF0E08081A6
S113065080FFFDCF8EEF8093E8004AC081111AC05D
S1130660E8EEF0E0808180FFFDCF623851F4E9EEDE
S1130670F0E040838091EB0085FB882780F91082AD
S113068001C080E0E1EFF0E0808310828EEF809380
S1130690E8002EC0982F9D7F913019F5623009F53E
S11306A0232BF9F44F779FEF940F9430D0F49EEFFF
S11306B09093E8004093E900833021F481E2809331
S11306C0EB0016C089E18093EB0081E090E002C06A
S11306D0880F991F4A95E2F7EAEEF0E080831082D2
S11306E007C081E28093EB0003C06C932111F7CE25
S11306F0FF91EF91DF91CF91BF91AF919F918F9136
S11307007F916F915F914F913F912F911F910F9125
S11307100F900FBE0F901F9018951F920F920FB657
S11307200F9211242F933F934F935F936F937F9373
S11307308F939F93AF93BF93EF93FF938091B900EF
S1130740887F883211F138F48831A9F08032C9F0F9
S1130750883041F507C0883451F0883501F1803381
S113076009F519C061E081E00E94BA011BC081E073
S11307700E94EB0017C0ECEBF0E08081806880837E
S113078011C081E00E94EB000DC081E00E94C6010F
S11307900E94B60107C081E00E94EB0003C081E023
S11307A00E94EB00FF91EF91BF91AF919F918F91C8
S11307B07F916F915F914F913F912F910F900FBE59
S11307C00F901F901895789447E066E081E00E94AE
S11307D0DA000E94A6010E94B201FFCFF894FFCF75
S10B07E000E100000000080024
S9030000FC
