S01600006175746F70696C6F745F6D61696E2E7372656329
S113000012C021C020C01FC01EC01DC01CC01BC008
S11300101AC019C018C017C016C015C014C013C028
S113002012C099C010C011241FBECFE5D4E0DEBFBA
S1130030CDBF20E0A0E6B0E001C01D92AC36B2070F
S1130040E1F7F4D00EC1DCCF8093620040936000EE
S11300506093610041E007D040E0609160008091CE
S1130060620001D008958130C9F018F0823059F14E
S1130070089527B381E090E002C0880F991F6A9524
S1130080E2F7282B27BB442321F098B3892B88BBA4
S1130090089598B38095892388BB089524B381E09B
S11300A090E002C0880F991F6A95E2F7282B24BBC1
S11300B0442321F095B3892B85BB089595B380958E
S11300C0892385BB089521B381E090E002C0880FA5
S11300D0991F6A95E2F7282B21BB442321F092B3A0
S11300E0892B82BB089592B38095892382BB08959E
S11300F0CF93DF93C82FD62F40E0B5DF2FE78AE1F7
S113010096E0215080409040E1F700C0000041E0BB
S11301106D2F8C2FA8DF2FE78AE196E021508040D5
S11301209040E1F700C00000DF91CF910895880F5F
S113013082B985EC86BF06B607FEFDCF089585EC2F
S113014086BF089585E886BF089583B1089586B76C
S1130150806886BF08951F920F920FB60F921124E4
S11301602F933F934F935F936F937F938F939F93BB
S1130170AF93BF93CF93EF93FF93F89481B1887FAC
S113018080936A00803629F0803871F0811132C082
S11301902EC010926B0010926900E3E6F0E0138227
S11301A014821582D4DF27C0D0DF863B61F48091AE
S11301B06B00811108C080916900811122C081E027
S11301C0809369001AC0809169008823C1F0C091AE
S11301D06B00C330A0F4B9DFEC2FF0E0ED59FF4F12
S11301E0838380916B008F5F80936B0006C081E0F6
S11301F09EDF01C0ACDF789407C0A1DFFCCFA2DF93
S1130200FACFC0916B00E7CFFF91EF91CF91BF91EF
S1130210AF919F918F917F916F915F914F913F919A
S11302202F910F900FBE0F901F901895789447E070
S113023066E082E009DF81E07ADFC3E6D0E08B810B
S1130240813059F48C81813041F48D81813029F4DD
S113025041E066E082E007DFF2CF66E082E048DF5B
S1090260EECFF894FFCF7D
S9030000FC
