:1000000012C021C020C01FC01EC01DC01CC01BC00C
:100010001AC019C018C017C016C015C014C013C02C
:1000200012C0C8C010C011241FBECFE5D4E0DEBF8F
:10003000CDBF20E0A0E6B0E001C01D92A13DB20717
:10004000E1F731D157C1DCCF80936200409360006B
:100050006093610041E025D040E0609160008091B4
:1000600062001FD00895CF93C82F40E060916100D7
:100070008091620016D040E0609160008091620043
:1000800010D0CC2331F060916000809162004ED09E
:10009000FACF41E0609161008091620002D0CF917F
:1000A00008958130C9F018F0823059F1089527B3CE
:1000B00081E090E002C0880F991F6A95E2F7282B33
:1000C00027BB442321F098B3892B88BB089598B3AC
:1000D0008095892388BB089524B381E090E002C015
:1000E000880F991F6A95E2F7282B24BB442321F03F
:1000F00095B3892B85BB089595B38095892385BBDE
:10010000089521B381E090E002C0880F991F6A959D
:10011000E2F7282B21BB442321F092B3892B82BB29
:10012000089592B38095892382BB0895CF93DF937E
:10013000C82FD62F40E0B5DF2FE78AE196E02150A7
:1001400080409040E1F700C0000041E06D2F8C2F0F
:10015000A8DF2FE78AE196E0215080409040E1F748
:1001600000C00000DF91CF910895CF93DF93C82F97
:10017000D62F40E096DF2FE784E89EE121508040B3
:100180009040E1F700C0000041E06D2F8C2F89DF27
:100190002FE784E89EE1215080409040E1F700C0C5
:1001A0000000DF91CF910895880F82B9089585E40A
:1001B00086BF08951F920F920FB60F9211242F93AE
:1001C0003F934F935F936F937F938F939F93AF93DF
:1001D000BF93EF93FF93F89481B1887F803A09F43D
:1001E0004EC040F48038C1F0883821F1803609F0E3
:1001F00048C00BC0883B41F118F4883AF1F041C087
:10020000803CB9F1883CC1F13CC01092D000109202
:10021000CE0085EC86BF35C0E091D00081E08E0F26
:100220008093D00083B1F0E0E659FF4F808385ECE6
:1002300086BF27C081E017DF24C01092D00081E084
:1002400083B985EC86BF1DC0E091D0008091690024
:10025000E81760F481E08E0F8093D000F0E0ED5954
:10026000FF4F838183B985EC86BF0BC085E886BFCD
:1002700008C085E886BF05C085E886BF02C085E85E
:1002800086BF7894FF91EF91BF91AF919F918F912D
:100290007F916F915F914F913F912F910F900FBE82
:1002A0000F901F901895E3E6F0E086EB828381E0E3
:1002B00083838483858383E08683789447E066E044
:1002C00082E0C2DE81E070DF72DFCAE6D0E011E0DA
:1002D0008881863B59F48981813041F48A8181305B
:1002E00029F41B8366E082E021DFF2CF66E082E042
:0802F0003CDFEECFF894FFCFD4
:00000001FF
