:1000000012C02CC02BC02AC029C028C027C026C0BF
:1000100025C024C023C022C021C020C01FC01EC0D4
:100020001DC01CC01BC011241FBECFE5D4E0DEBF25
:10003000CDBF10E0A0E6B0E0E2E6F3E002C005903C
:100040000D92A236B107D9F710E0A2E6B0E001C0E8
:100050001D92AE36B107E1F76AD181C1D1CF80934D
:10006000600066E040E038D08091600067E040E0EA
:1000700033D008951F93182F8091600066E040E010
:100080002BD08091600067E040E026D01123E9F09A
:100090008FE79AE1A6E081509040A040E1F700C0D0
:1000A00000008091600067E041E016D08FE79AE1A0
:1000B000A6E081509040A040E1F700C00000809190
:1000C000600067E040E008D0E3CF8091600066E028
:1000D00041E002D01F9108958130F1F0813020F08D
:1000E000823009F048C030C027B381E090E0FC01C5
:1000F00002C0EE0FFF1F6A95E2F7BF018E2F822B21
:1001000087BB442321F088B3682B68BB089588B36C
:100110006095682368BB089524B381E090E0FC01FA
:1001200002C0EE0FFF1F6A95E2F7BF018E2F822BF0
:1001300084BB442321F085B3682B65BB089585B348
:100140006095682365BB089521B381E090E0FC01D0
:1001500002C0EE0FFF1F6A95E2F7BF018E2F822BC0
:1001600081BB442321F082B3682B62BB089582B324
:100170006095682362BB08958130C1F0813018F02A
:100180008230D1F526C047B321E030E0C90102C07A
:10019000880F991F6A95E2F7982F9095942397BB43
:1001A00098B3982B98BB96B38923089544B321E064
:1001B00030E0C90102C0880F991F6A95E2F7982FB5
:1001C0009095942394BB95B3982B95BB93B38923B7
:1001D000089541B321E030E0C90102C0880F991FA2
:1001E0006A95E2F7982F9095942391BB92B3982B40
:1001F00092BB90B38923089580E0089511B880E2FE
:1002000080B98FEF83B984E086BF089584EA86BF02
:1002100006B607FEFDCF91B1987F81E0983009F4D2
:1002200080E0089584E986BF80E0089584EA86BF6F
:1002300006B607FEFDCF91B1987F81E0903109F4B9
:1002400080E00895613021F4880F816020E402C0CD
:10025000880F28E183B984E886BF06B607FEFDCF84
:1002600041B150E0487F507030E081E042175307C1
:1002700009F480E0089583B984E886BF06B607FED6
:10028000FDCF91B1987F81E0983209F480E0089524
:1002900024EC26BF06B607FEFDCF21B133B1FC0129
:1002A0003083922F987F81E0903509F480E00895A3
:1002B00084E886BF06B607FEFDCF91B1987F81E046
:1002C000983509F480E00895880F82B984EC86BFE0
:1002D00006B607FEFDCF91B1987F81E0903609F414
:1002E00080E0089584EC86BF06B607FEFDCF089532
:1002F00084E886BF06B607FEFDCF089581B1887FEA
:1003000080936C00803891F480916D008A3058F4AD
:1003100093B1E2E6F0E0E80FF11D90838F5F8093E8
:100320006D00E0DF0895E4DF10926D000895CF9333
:10033000DF9382E094DE81E0C7DF9CDED3DFC2E69C
:10034000D0E0DCDF8881882329F082E065E041E0AD
:10035000C3DEF7CF82E065E040E0BEDEF2CFF89486
:02036000FFCFCD
:02036200010098
:00000001FF
