:1000000012C021C020C01FC01EC01DC01CC01BC00C
:100010001AC019C018C017C016C015C014C013C02C
:1000200012C0D7C010C011241FBECFE5D4E0DEBF80
:10003000CDBF20E0A0E6B0E001C01D92AC36B20713
:10004000E1F733D14CC1DCCF809362004093600074
:100050006093610041E025D040E0609160008091B4
:1000600062001FD00895CF93C82F40E060916100D7
:100070008091620016D040E0609160008091620043
:1000800010D0CC2331F060916000809162004ED09E
:10009000FACF41E0609161008091620002D0CF917F
:1000A00008958130C9F018F0823059F1089527B3CE
:1000B00081E090E002C0880F991F6A95E2F7282B33
:1000C00027BB442321F098B3892B88BB089598B3AC
:1000D0008095892388BB089524B381E090E002C015
:1000E000880F991F6A95E2F7282B24BB442321F03F
:1000F00095B3892B85BB089595B38095892385BBDE
:10010000089521B381E090E002C0880F991F6A959D
:10011000E2F7282B21BB442321F092B3892B82BB29
:10012000089592B38095892382BB0895CF93DF937E
:10013000C82FD62F40E0B5DF2FE78AE196E02150A7
:1001400080409040E1F700C0000041E06D2F8C2F0F
:10015000A8DF2FE78AE196E0215080409040E1F748
:1001600000C00000DF91CF910895CF93DF93C82F97
:10017000D62F40E096DF2FE382E49FE021508040BD
:100180009040E1F700C0000041E06D2F8C2F89DF27
:100190002FE382E49FE0215080409040E1F700C0CF
:1001A0000000DF91CF910895880F82B985EC86BF5A
:1001B00006B607FEFDCF089583B10895109266003C
:1001C000109267001092680010926B001092690004
:1001D00008951F920F920FB60F9211242F933F9301
:1001E0004F935F936F937F938F939F93AF93BF933F
:1001F000CF93EF93FF93F89481B1887F80936A0047
:10020000803649F018F4882399F130C0803839F0ED
:10021000883841F12BC0D2DF85EC86BF29C0CCDF06
:10022000863B61F480916B00811108C08091690068
:10023000811126C081E0809369001CC08091690013
:100240008823D9F0C0916B00C330B8F4B5DFEC2F30
:10025000F0E0ED59FF4F838380916B008F5F8093B7
:100260006B0008C0ABDF81E0FEDE02C085E886BF20
:10027000789409C085EC86BFFBCF85E886BFF8CFB0
:10028000C0916B00E3CFFF91EF91CF91BF91AF9100
:100290009F918F917F916F915F914F913F912F919E
:1002A0000F900FBE0F901F901895789447E066E06E
:1002B00082E0CADE81E078DFC3E6D0E08B81813066
:1002C00051F48C81813039F48D81813021F466E0E4
:1002D00082E04BDFF3CF66E082E028DFEFCFF894D7
:0202E000FFCF4E
:00000001FF
