S01600006175746F70696C6F745F6D61696E2E7372656329
S113000012C021C020C01FC01EC01DC01CC01BC008
S11300101AC019C018C017C016C015C014C013C028
S113002012C0B1C010C011241FBECFE5D4E0DEBFA2
S1130030CDBF20E0A0E6B0E001C01D92AE36B2070D
S1130040E1F7E5D0FAC0DCCF809362004093600012
S11300506093610041E025D040E0609160008091B0
S113006062001FD00895CF93C82F40E060916100D3
S11300708091620016D040E060916000809162003F
S113008010D0CC2331F060916000809162004ED09A
S1130090FACF41E0609161008091620002D0CF917B
S11300A008958130C9F018F0823059F1089527B3CA
S11300B081E090E002C0880F991F6A95E2F7282B2F
S11300C027BB442321F098B3892B88BB089598B3A8
S11300D08095892388BB089524B381E090E002C011
S11300E0880F991F6A95E2F7282B24BB442321F03B
S11300F095B3892B85BB089595B38095892385BBDA
S1130100089521B381E090E002C0880F991F6A9599
S1130110E2F7282B21BB442321F092B3892B82BB25
S1130120089592B38095892382BB0895CF93DF937A
S1130130C82FD62F40E0B5DF2FE78AE196E02150A3
S113014080409040E1F700C0000041E06D2F8C2F0B
S1130150A8DF2FE78AE196E0215080409040E1F744
S113016000C00000DF91CF910895880F82B985EC1B
S113017086BF06B607FEFDCF089585EC86BF0895B9
S113018085E886BF08951F920F920FB60F9211242F
S11301902F933F934F935F936F937F938F939F938B
S11301A0AF93BF93EF93FF9381B1887F803629F09B
S11301B0803839F08835D1F417C086B7806886BF97
S11301C015C0809163008A3058F493B1E82FF0E0B1
S11301D0EC59FF4F90838F5F80936300CEDF06C09E
S11301E0CFDF1092630002C081E03DDFFF91EF9109
S11301F0BF91AF919F918F917F916F915F914F913B
S11302003F912F910F900FBE0F901F9018957894E7
S113021047E066E082E018DF81E0A7DFC4E6D0E0D3
S11302208881882329F041E065E082E03ADFF8CF55
S111023040E065E082E035DFF3CFF894FFCFC5
S9030000FC
