S01600006175746F70696C6F745F6D61696E2E7372656329
S113000012C021C020C01FC01EC01DC01CC01BC008
S11300101AC019C018C017C016C015C014C013C028
S113002012C097C010C011241FBECFE5D4E0DEBFBC
S1130030CDBF20E0A0E6B0E001C01D92A836B20713
S1130040E1F7D1D0E8C0DCCF809362004093600038
S11300506093610041E007D040E0609160008091CE
S1130060620001D008958130C9F018F0823059F14E
S1130070089527B381E090E002C0880F991F6A9524
S1130080E2F7282B27BB442321F098B3892B88BBA4
S1130090089598B38095892388BB089524B381E09B
S11300A090E002C0880F991F6A95E2F7282B24BBC1
S11300B0442321F095B3892B85BB089595B380958E
S11300C0892385BB089521B381E090E002C0880FA5
S11300D0991F6A95E2F7282B21BB442321F092B3A0
S11300E0892B82BB089592B38095892382BB08959E
S11300F0CF93DF93C82FD62F40E0B5DF2FE78AE1F7
S113010096E0215080409040E1F700C0000041E0BB
S11301106D2F8C2FA8DF2FE78AE196E021508040D5
S11301209040E1F700C00000DF91CF910895880F5F
S113013082B985EC86BF06B607FEFDCF089585EC2F
S113014086BF089585E886BF089586B7806886BF10
S113015008951F920F920FB60F9211242F933F937D
S11301604F935F936F937F938F939F93AF93BF93BB
S1130170EF93FF93F89481B1887F80936700803672
S113018029F0803839F081111BC017C01092630028
S1130190DCDF17C080916300833058F493B1E82FFB
S11301A0F0E0EC59FF4F90838F5F80936300C7DFCB
S11301B008C010926300C6DF04C081E0B8DF01C04C
S11301C0C4DF7894FF91EF91BF91AF919F918F918C
S11301D07F916F915F914F913F912F910F900FBE3F
S11301E00F901F901895789447E066E082E02CDF2A
S11301F081E09DDFC4E6D0E088818F3F41F48981AE
S1130200813029F441E066E082E02DDFF5CF66E03D
S10D021082E06EDFF1CFF894FFCF17
S9030000FC
