:1000000012C021C020C01FC01EC01DC01CC01BC00C
:100010001AC019C018C017C016C015C014C013C02C
:1000200012C0C8C010C011241FBECFE5D4E0DEBF8F
:10003000CDBF20E0A0E6B0E001C01D92A13DB20717
:10004000E1F718D132C1DCCF8093620040936000A9
:100050006093610041E025D040E0609160008091B4
:1000600062001FD00895CF93C82F40E060916100D7
:100070008091620016D040E0609160008091620043
:1000800010D0CC2331F060916000809162004ED09E
:10009000FACF41E0609161008091620002D0CF917F
:1000A00008958130C9F018F0823059F1089527B3CE
:1000B00081E090E002C0880F991F6A95E2F7282B33
:1000C00027BB442321F098B3892B88BB089598B3AC
:1000D0008095892388BB089524B381E090E002C015
:1000E000880F991F6A95E2F7282B24BB442321F03F
:1000F00095B3892B85BB089595B38095892385BBDE
:10010000089521B381E090E002C0880F991F6A959D
:10011000E2F7282B21BB442321F092B3892B82BB29
:10012000089592B38095892382BB0895CF93DF937E
:10013000C82FD62F40E0B5DF2FE78AE196E02150A7
:1001400080409040E1F700C0000041E06D2F8C2F0F
:10015000A8DF2FE78AE196E0215080409040E1F748
:1001600000C00000DF91CF910895CF93DF93C82F97
:10017000D62F40E096DF2FE784E89EE121508040B3
:100180009040E1F700C0000041E06D2F8C2F89DF27
:100190002FE784E89EE1215080409040E1F700C0C5
:1001A0000000DF91CF910895880F82B9089585E40A
:1001B00086BF08951F920F920FB60F9211242F93AE
:1001C0003F934F935F936F937F938F939F93AF93DF
:1001D000BF93EF93FF93F89481B1887F803AB1F198
:1001E00038F48038C9F0883829F1803689F507C09D
:1001F000883B31F1803C39F1883A51F51EC01092AC
:10020000660010926700109268001092D000109261
:10021000CE0085EC86BF1CC0E091D00081E08E0F3F
:100220008093D00083B1F0E0E659FF4F808385ECE6
:1002300086BF0EC081E017DF0BC081E014DF08C06D
:1002400081E011DF05C081E00EDF02C085E886BFD6
:100250007894FF91EF91BF91AF919F918F917F9192
:100260006F915F914F913F912F910F900FBE0F9023
:100270001F901895789447E066E082E0E5DE81E023
:1002800093DF95DFCAE6D0E011E08881863B49F430
:1002900019838A81813029F41B8366E082E046DF7E
:0E02A000F4CF66E082E061DFF0CFF894FFCF8C
:00000001FF
