:1000000012C02CC02BC02AC029C028C027C026C0BF
:1000100025C024C023C022C021C020C01FC01EC0D4
:100020001DC026C11BC011241FBECFE5D4E0DEBF1A
:10003000CDBF10E0A0E6B0E0E8E2F3E002C005903A
:100040000D92A236B107D9F710E0A2E6B0E001C0E8
:100050001D92AD36B107E1F74FD164C1D1CF809386
:10006000600066E041E020D08091600067E040E001
:100070001BD008951F93182F8091600066E040E028
:1000800013D08091600067E040E00ED0112329F08A
:100090008091600067E09AD0FBCF8091600066E0BD
:1000A00041E002D01F9108958130F1F0813020F0BD
:1000B000823009F048C030C027B381E090E0FC01F5
:1000C00002C0EE0FFF1F6A95E2F7BF018E2F822B51
:1000D00087BB442321F088B3682B68BB089588B39D
:1000E0006095682368BB089524B381E090E0FC012B
:1000F00002C0EE0FFF1F6A95E2F7BF018E2F822B21
:1001000084BB442321F085B3682B65BB089585B378
:100110006095682365BB089521B381E090E0FC0100
:1001200002C0EE0FFF1F6A95E2F7BF018E2F822BF0
:1001300081BB442321F082B3682B62BB089582B354
:100140006095682362BB08958130C1F0813018F05A
:100150008230D1F526C047B321E030E0C90102C0AA
:10016000880F991F6A95E2F7982F9095942397BB73
:1001700098B3982B98BB96B38923089544B321E094
:1001800030E0C90102C0880F991F6A95E2F7982FE5
:100190009095942394BB95B3982B95BB93B38923E7
:1001A000089541B321E030E0C90102C0880F991FD2
:1001B0006A95E2F7982F9095942391BB92B3982B70
:1001C00092BB90B38923089580E008950F931F9305
:1001D000082F162F40E068DF8FE79AE1A6E08150F4
:1001E0009040A040E1F700C00000802F612F41E067
:1001F0005BDF8FE79AE1A6E081509040A040E1F7F5
:1002000000C000001F910F91089511B880E280B9DD
:100210008FEF83B985E086BF089585EA86BF08958C
:1002200085E986BF089585EA86BF0895613019F48F
:10023000880F816001C0880F83B985EC86BF08955F
:1002400083B985E886BF089585EC86BF089585E863
:1002500086BF0895880F82B985EC86BF06B607FE73
:10026000FDCF089585EC86BF089585E886BF089583
:100270001F920F920FB60F9211242F933F934F931B
:100280005F936F937F938F939F93AF93BF93EF93FE
:10029000FF9381B1887F803629F0803839F0883526
:1002A000D1F417C086B7806886BF15C080916C00F6
:1002B0008A3058F493B1E2E6F0E0E80FF11D908344
:1002C0008F5F80936C00CEDF06C0CFDF10926C0092
:1002D00002C081E0CFDEFF91EF91BF91AF919F917E
:1002E0008F917F916F915F914F913F912F910F90DF
:1002F0000FBE0F901F901895CF93DF93789482E0F4
:10030000AEDE81E0A7DFC2E6D0E08881882329F055
:1003100082E065E041E0C8DEF8CF82E065E040E0E1
:08032000C3DEF3CFF894FFCF18
:020328000100D2
:00000001FF
