:1000000012C021C020C01FC01EC01DC01CC01BC00C
:100010001AC019C018C017C016C015C014C013C02C
:1000200012C097C010C011241FBECFE5D4E0DEBFC0
:10003000CDBF20E0A0E6B0E001C01D92AB36B20714
:10004000E1F7D7D0EEC0DCCF809362004093600030
:100050006093610041E007D040E0609160008091D2
:10006000620001D008958130C9F018F0823059F152
:10007000089527B381E090E002C0880F991F6A9528
:10008000E2F7282B27BB442321F098B3892B88BBA8
:10009000089598B38095892388BB089524B381E09F
:1000A00090E002C0880F991F6A95E2F7282B24BBC5
:1000B000442321F095B3892B85BB089595B3809592
:1000C000892385BB089521B381E090E002C0880FA9
:1000D000991F6A95E2F7282B21BB442321F092B3A4
:1000E000892B82BB089592B38095892382BB0895A2
:1000F000CF93DF93C82FD62F40E0B5DF2FE78AE1FB
:1001000096E0215080409040E1F700C0000041E0BF
:100110006D2F8C2FA8DF2FE78AE196E021508040D9
:100120009040E1F700C00000DF91CF910895880F63
:1001300082B985EC86BF06B607FEFDCF089585EC33
:1001400086BF089585E886BF089586B7806886BF14
:1001500008951F920F920FB60F9211242F933F9381
:100160004F935F936F937F938F939F93AF93BF93BF
:10017000EF93FF93F89481B1887F8093630080367A
:1001800029F0803839F0811121C01DC0109264001F
:10019000D6DF1DC080916400823088F4811104C0D4
:1001A00093B19093680006C093B1E82FF0E0EB594B
:1001B000FF4F94838F5F80936400C1DF08C010926B
:1001C0006400C0DF04C081E0B2DF01C0BEDF78940C
:1001D000FF91EF91BF91AF919F918F917F916F911F
:1001E0005F914F913F912F910F900FBE0F901F90F5
:1001F0001895789447E066E082E026DF81E097DF9B
:10020000C5E6D0E08C81813041F48D81813029F4C4
:1002100041E066E082E027DFF5CF66E082E068DF5C
:06022000F1CFF894FFCFBE
:00000001FF
